{
  "_format": "hh-sol-artifact-1",
  "contractName": "TicketNFT",
  "sourceName": "contracts/TicketNFT.sol",
  "abi": [
    {
      "inputs": [],
      "stateMutability": "nonpayable",
      "type": "constructor"
    },
    {
      "inputs": [
        {
          "internalType": "address",
          "name": "sender",
          "type": "address"
        },
        {
          "internalType": "uint256",
          "name": "tokenId",
          "type": "uint256"
        },
        {
          "internalType": "address",
          "name": "owner",
          "type": "address"
        }
      ],
      "name": "ERC721IncorrectOwner",
      "type": "error"
    },
    {
      "inputs": [
        {
          "internalType": "address",
          "name": "operator",
          "type": "address"
        },
        {
          "internalType": "uint256",
          "name": "tokenId",
          "type": "uint256"
        }
      ],
      "name": "ERC721InsufficientApproval",
      "type": "error"
    },
    {
      "inputs": [
        {
          "internalType": "address",
          "name": "approver",
          "type": "address"
        }
      ],
      "name": "ERC721InvalidApprover",
      "type": "error"
    },
    {
      "inputs": [
        {
          "internalType": "address",
          "name": "operator",
          "type": "address"
        }
      ],
      "name": "ERC721InvalidOperator",
      "type": "error"
    },
    {
      "inputs": [
        {
          "internalType": "address",
          "name": "owner",
          "type": "address"
        }
      ],
      "name": "ERC721InvalidOwner",
      "type": "error"
    },
    {
      "inputs": [
        {
          "internalType": "address",
          "name": "receiver",
          "type": "address"
        }
      ],
      "name": "ERC721InvalidReceiver",
      "type": "error"
    },
    {
      "inputs": [
        {
          "internalType": "address",
          "name": "sender",
          "type": "address"
        }
      ],
      "name": "ERC721InvalidSender",
      "type": "error"
    },
    {
      "inputs": [
        {
          "internalType": "uint256",
          "name": "tokenId",
          "type": "uint256"
        }
      ],
      "name": "ERC721NonexistentToken",
      "type": "error"
    },
    {
      "anonymous": false,
      "inputs": [
        {
          "indexed": true,
          "internalType": "address",
          "name": "owner",
          "type": "address"
        },
        {
          "indexed": true,
          "internalType": "address",
          "name": "approved",
          "type": "address"
        },
        {
          "indexed": true,
          "internalType": "uint256",
          "name": "tokenId",
          "type": "uint256"
        }
      ],
      "name": "Approval",
      "type": "event"
    },
    {
      "anonymous": false,
      "inputs": [
        {
          "indexed": true,
          "internalType": "address",
          "name": "owner",
          "type": "address"
        },
        {
          "indexed": true,
          "internalType": "address",
          "name": "operator",
          "type": "address"
        },
        {
          "indexed": false,
          "internalType": "bool",
          "name": "approved",
          "type": "bool"
        }
      ],
      "name": "ApprovalForAll",
      "type": "event"
    },
    {
      "anonymous": false,
      "inputs": [
        {
          "indexed": true,
          "internalType": "address",
          "name": "from",
          "type": "address"
        },
        {
          "indexed": true,
          "internalType": "address",
          "name": "to",
          "type": "address"
        },
        {
          "indexed": true,
          "internalType": "uint256",
          "name": "tokenId",
          "type": "uint256"
        }
      ],
      "name": "Transfer",
      "type": "event"
    },
    {
      "inputs": [
        {
          "internalType": "address",
          "name": "to",
          "type": "address"
        },
        {
          "internalType": "uint256",
          "name": "tokenId",
          "type": "uint256"
        }
      ],
      "name": "approve",
      "outputs": [],
      "stateMutability": "nonpayable",
      "type": "function"
    },
    {
      "inputs": [
        {
          "internalType": "address",
          "name": "owner",
          "type": "address"
        }
      ],
      "name": "balanceOf",
      "outputs": [
        {
          "internalType": "uint256",
          "name": "",
          "type": "uint256"
        }
      ],
      "stateMutability": "view",
      "type": "function"
    },
    {
      "inputs": [
        {
          "internalType": "uint256",
          "name": "tokenId",
          "type": "uint256"
        }
      ],
      "name": "getApproved",
      "outputs": [
        {
          "internalType": "address",
          "name": "",
          "type": "address"
        }
      ],
      "stateMutability": "view",
      "type": "function"
    },
    {
      "inputs": [
        {
          "internalType": "uint256",
          "name": "tokenId",
          "type": "uint256"
        }
      ],
      "name": "getTicketMetadata",
      "outputs": [
        {
          "internalType": "string",
          "name": "",
          "type": "string"
        }
      ],
      "stateMutability": "view",
      "type": "function"
    },
    {
      "inputs": [
        {
          "internalType": "address",
          "name": "owner",
          "type": "address"
        },
        {
          "internalType": "address",
          "name": "operator",
          "type": "address"
        }
      ],
      "name": "isApprovedForAll",
      "outputs": [
        {
          "internalType": "bool",
          "name": "",
          "type": "bool"
        }
      ],
      "stateMutability": "view",
      "type": "function"
    },
    {
      "inputs": [
        {
          "internalType": "address[]",
          "name": "to",
          "type": "address[]"
        },
        {
          "internalType": "string",
          "name": "metadata",
          "type": "string"
        }
      ],
      "name": "mintBatchTickets",
      "outputs": [],
      "stateMutability": "nonpayable",
      "type": "function"
    },
    {
      "inputs": [
        {
          "internalType": "address",
          "name": "to",
          "type": "address"
        },
        {
          "internalType": "string",
          "name": "metadata",
          "type": "string"
        }
      ],
      "name": "mintTicket",
      "outputs": [],
      "stateMutability": "nonpayable",
      "type": "function"
    },
    {
      "inputs": [],
      "name": "name",
      "outputs": [
        {
          "internalType": "string",
          "name": "",
          "type": "string"
        }
      ],
      "stateMutability": "view",
      "type": "function"
    },
    {
      "inputs": [
        {
          "internalType": "uint256",
          "name": "tokenId",
          "type": "uint256"
        }
      ],
      "name": "ownerOf",
      "outputs": [
        {
          "internalType": "address",
          "name": "",
          "type": "address"
        }
      ],
      "stateMutability": "view",
      "type": "function"
    },
    {
      "inputs": [
        {
          "internalType": "address",
          "name": "from",
          "type": "address"
        },
        {
          "internalType": "address",
          "name": "to",
          "type": "address"
        },
        {
          "internalType": "uint256",
          "name": "tokenId",
          "type": "uint256"
        }
      ],
      "name": "safeTransferFrom",
      "outputs": [],
      "stateMutability": "nonpayable",
      "type": "function"
    },
    {
      "inputs": [
        {
          "internalType": "address",
          "name": "from",
          "type": "address"
        },
        {
          "internalType": "address",
          "name": "to",
          "type": "address"
        },
        {
          "internalType": "uint256",
          "name": "tokenId",
          "type": "uint256"
        },
        {
          "internalType": "bytes",
          "name": "data",
          "type": "bytes"
        }
      ],
      "name": "safeTransferFrom",
      "outputs": [],
      "stateMutability": "nonpayable",
      "type": "function"
    },
    {
      "inputs": [
        {
          "internalType": "address",
          "name": "operator",
          "type": "address"
        },
        {
          "internalType": "bool",
          "name": "approved",
          "type": "bool"
        }
      ],
      "name": "setApprovalForAll",
      "outputs": [],
      "stateMutability": "nonpayable",
      "type": "function"
    },
    {
      "inputs": [
        {
          "internalType": "bytes4",
          "name": "interfaceId",
          "type": "bytes4"
        }
      ],
      "name": "supportsInterface",
      "outputs": [
        {
          "internalType": "bool",
          "name": "",
          "type": "bool"
        }
      ],
      "stateMutability": "view",
      "type": "function"
    },
    {
      "inputs": [],
      "name": "symbol",
      "outputs": [
        {
          "internalType": "string",
          "name": "",
          "type": "string"
        }
      ],
      "stateMutability": "view",
      "type": "function"
    },
    {
      "inputs": [],
      "name": "ticketCounter",
      "outputs": [
        {
          "internalType": "uint256",
          "name": "",
          "type": "uint256"
        }
      ],
      "stateMutability": "view",
      "type": "function"
    },
    {
      "inputs": [
        {
          "internalType": "uint256",
          "name": "",
          "type": "uint256"
        }
      ],
      "name": "ticketMetadata",
      "outputs": [
        {
          "internalType": "string",
          "name": "",
          "type": "string"
        }
      ],
      "stateMutability": "view",
      "type": "function"
    },
    {
      "inputs": [
        {
          "internalType": "uint256",
          "name": "tokenId",
          "type": "uint256"
        }
      ],
      "name": "tokenURI",
      "outputs": [
        {
          "internalType": "string",
          "name": "",
          "type": "string"
        }
      ],
      "stateMutability": "view",
      "type": "function"
    },
    {
      "inputs": [
        {
          "internalType": "address",
          "name": "from",
          "type": "address"
        },
        {
          "internalType": "address",
          "name": "to",
          "type": "address"
        },
        {
          "internalType": "uint256",
          "name": "tokenId",
          "type": "uint256"
        }
      ],
      "name": "transferFrom",
      "outputs": [],
      "stateMutability": "nonpayable",
      "type": "function"
    }
  ],
  "bytecode": "0x608060405234801561001057600080fd5b506040518060400160405280600b81526020017f4576656e745469636b65740000000000000000000000000000000000000000008152506040518060400160405280600781526020017f455449434b455400000000000000000000000000000000000000000000000000815250816000908161008c91906102fc565b50806001908161009c91906102fc565b50505060006006819055506103ce565b600081519050919050565b7f4e487b7100000000000000000000000000000000000000000000000000000000600052604160045260246000fd5b7f4e487b7100000000000000000000000000000000000000000000000000000000600052602260045260246000fd5b6000600282049050600182168061012d57607f821691505b6020821081036101405761013f6100e6565b5b50919050565b60008190508160005260206000209050919050565b60006020601f8301049050919050565b600082821b905092915050565b6000600883026101a87fffffffffffffffffffffffffffffffffffffffffffffffffffffffffffffffff8261016b565b6101b2868361016b565b95508019841693508086168417925050509392505050565b6000819050919050565b6000819050919050565b60006101f96101f46101ef846101ca565b6101d4565b6101ca565b9050919050565b6000819050919050565b610213836101de565b61022761021f82610200565b848454610178565b825550505050565b600090565b61023c61022f565b61024781848461020a565b505050565b5b8181101561026b57610260600082610234565b60018101905061024d565b5050565b601f8211156102b05761028181610146565b61028a8461015b565b81016020851015610299578190505b6102ad6102a58561015b565b83018261024c565b50505b505050565b600082821c905092915050565b60006102d3600019846008026102b5565b1980831691505092915050565b60006102ec83836102c2565b9150826002028217905092915050565b610305826100ac565b67ffffffffffffffff81111561031e5761031d6100b7565b5b6103288254610115565b61033382828561026f565b600060209050601f8311600181146103665760008415610354578287015190505b61035e85826102e0565b8655506103c6565b601f19841661037486610146565b60005b8281101561039c57848901518255600182019150602085019450602081019050610377565b868310156103b957848901516103b5601f8916826102c2565b8355505b6001600288020188555050505b505050505050565b6125ea806103dd6000396000f3fe608060405234801561001057600080fd5b50600436106101165760003560e01c80638c4d59d0116100a2578063b88d4fde11610071578063b88d4fde146102dd578063ba0ae43c146102f9578063c87b56dd14610329578063e985e9c514610359578063ea05fc511461038957610116565b80638c4d59d01461026957806395d89b4114610287578063a22cb465146102a5578063b4629258146102c157610116565b806323b872dd116100e957806323b872dd146101b557806342842e0e146101d15780635388842c146101ed5780636352211e1461020957806370a082311461023957610116565b806301ffc9a71461011b57806306fdde031461014b578063081812fc14610169578063095ea7b314610199575b600080fd5b610135600480360381019061013091906118d3565b6103b9565b604051610142919061191b565b60405180910390f35b61015361049b565b60405161016091906119c6565b60405180910390f35b610183600480360381019061017e9190611a1e565b61052d565b6040516101909190611a8c565b60405180910390f35b6101b360048036038101906101ae9190611ad3565b610549565b005b6101cf60048036038101906101ca9190611b13565b61055f565b005b6101eb60048036038101906101e69190611b13565b610661565b005b61020760048036038101906102029190611c9b565b610681565b005b610223600480360381019061021e9190611a1e565b6106cc565b6040516102309190611a8c565b60405180910390f35b610253600480360381019061024e9190611cf7565b6106de565b6040516102609190611d33565b60405180910390f35b610271610798565b60405161027e9190611d33565b60405180910390f35b61028f61079e565b60405161029c91906119c6565b60405180910390f35b6102bf60048036038101906102ba9190611d7a565b610830565b005b6102db60048036038101906102d69190611e82565b610846565b005b6102f760048036038101906102f29190611f9b565b6108c5565b005b610313600480360381019061030e9190611a1e565b6108ea565b60405161032091906119c6565b60405180910390f35b610343600480360381019061033e9190611a1e565b61098f565b60405161035091906119c6565b60405180910390f35b610373600480360381019061036e919061201e565b6109f8565b604051610380919061191b565b60405180910390f35b6103a3600480360381019061039e9190611a1e565b610a8c565b6040516103b091906119c6565b60405180910390f35b60007f80ac58cd000000000000000000000000000000000000000000000000000000007bffffffffffffffffffffffffffffffffffffffffffffffffffffffff1916827bffffffffffffffffffffffffffffffffffffffffffffffffffffffff1916148061048457507f5b5e139f000000000000000000000000000000000000000000000000000000007bffffffffffffffffffffffffffffffffffffffffffffffffffffffff1916827bffffffffffffffffffffffffffffffffffffffffffffffffffffffff1916145b80610494575061049382610b2c565b5b9050919050565b6060600080546104aa9061208d565b80601f01602080910402602001604051908101604052809291908181526020018280546104d69061208d565b80156105235780601f106104f857610100808354040283529160200191610523565b820191906000526020600020905b81548152906001019060200180831161050657829003601f168201915b5050505050905090565b600061053882610b96565b5061054282610c1e565b9050919050565b61055b8282610556610c5b565b610c63565b5050565b600073ffffffffffffffffffffffffffffffffffffffff168273ffffffffffffffffffffffffffffffffffffffff16036105d15760006040517f64a0ae920000000000000000000000000000000000000000000000000000000081526004016105c89190611a8c565b60405180910390fd5b60006105e583836105e0610c5b565b610c75565b90508373ffffffffffffffffffffffffffffffffffffffff168173ffffffffffffffffffffffffffffffffffffffff161461065b578382826040517f64283d7b000000000000000000000000000000000000000000000000000000008152600401610652939291906120be565b60405180910390fd5b50505050565b61067c838383604051806020016040528060008152506108c5565b505050565b6006600081548092919061069490612124565b91905055506106a582600654610e8f565b8060076000600654815260200190815260200160002090816106c79190612318565b505050565b60006106d782610b96565b9050919050565b60008073ffffffffffffffffffffffffffffffffffffffff168273ffffffffffffffffffffffffffffffffffffffff16036107515760006040517f89c62b640000000000000000000000000000000000000000000000000000000081526004016107489190611a8c565b60405180910390fd5b600360008373ffffffffffffffffffffffffffffffffffffffff1673ffffffffffffffffffffffffffffffffffffffff168152602001908152602001600020549050919050565b60065481565b6060600180546107ad9061208d565b80601f01602080910402602001604051908101604052809291908181526020018280546107d99061208d565b80156108265780601f106107fb57610100808354040283529160200191610826565b820191906000526020600020905b81548152906001019060200180831161080957829003601f168201915b5050505050905090565b61084261083b610c5b565b8383610f88565b5050565b60005b82518110156108c0576006600081548092919061086590612124565b91905055506108908382815181106108805761087f6123ea565b5b6020026020010151600654610e8f565b8160076000600654815260200190815260200160002090816108b29190612318565b508080600101915050610849565b505050565b6108d084848461055f565b6108e46108db610c5b565b858585856110f7565b50505050565b606060076000838152602001908152602001600020805461090a9061208d565b80601f01602080910402602001604051908101604052809291908181526020018280546109369061208d565b80156109835780601f1061095857610100808354040283529160200191610983565b820191906000526020600020905b81548152906001019060200180831161096657829003601f168201915b50505050509050919050565b606061099a82610b96565b5060006109a56112a8565b905060008151116109c557604051806020016040528060008152506109f0565b806109cf846112bf565b6040516020016109e0929190612455565b6040516020818303038152906040525b915050919050565b6000600560008473ffffffffffffffffffffffffffffffffffffffff1673ffffffffffffffffffffffffffffffffffffffff16815260200190815260200160002060008373ffffffffffffffffffffffffffffffffffffffff1673ffffffffffffffffffffffffffffffffffffffff16815260200190815260200160002060009054906101000a900460ff16905092915050565b60076020528060005260406000206000915090508054610aab9061208d565b80601f0160208091040260200160405190810160405280929190818152602001828054610ad79061208d565b8015610b245780601f10610af957610100808354040283529160200191610b24565b820191906000526020600020905b815481529060010190602001808311610b0757829003601f168201915b505050505081565b60007f01ffc9a7000000000000000000000000000000000000000000000000000000007bffffffffffffffffffffffffffffffffffffffffffffffffffffffff1916827bffffffffffffffffffffffffffffffffffffffffffffffffffffffff1916149050919050565b600080610ba28361138d565b9050600073ffffffffffffffffffffffffffffffffffffffff168173ffffffffffffffffffffffffffffffffffffffff1603610c1557826040517f7e273289000000000000000000000000000000000000000000000000000000008152600401610c0c9190611d33565b60405180910390fd5b80915050919050565b60006004600083815260200190815260200160002060009054906101000a900473ffffffffffffffffffffffffffffffffffffffff169050919050565b600033905090565b610c7083838360016113ca565b505050565b600080610c818461138d565b9050600073ffffffffffffffffffffffffffffffffffffffff168373ffffffffffffffffffffffffffffffffffffffff1614610cc357610cc281848661158f565b5b600073ffffffffffffffffffffffffffffffffffffffff168173ffffffffffffffffffffffffffffffffffffffff1614610d5457610d056000856000806113ca565b6001600360008373ffffffffffffffffffffffffffffffffffffffff1673ffffffffffffffffffffffffffffffffffffffff168152602001908152602001600020600082825403925050819055505b600073ffffffffffffffffffffffffffffffffffffffff168573ffffffffffffffffffffffffffffffffffffffff1614610dd7576001600360008773ffffffffffffffffffffffffffffffffffffffff1673ffffffffffffffffffffffffffffffffffffffff168152602001908152602001600020600082825401925050819055505b846002600086815260200190815260200160002060006101000a81548173ffffffffffffffffffffffffffffffffffffffff021916908373ffffffffffffffffffffffffffffffffffffffff160217905550838573ffffffffffffffffffffffffffffffffffffffff168273ffffffffffffffffffffffffffffffffffffffff167fddf252ad1be2c89b69c2b068fc378daa952ba7f163c4a11628f55a4df523b3ef60405160405180910390a4809150509392505050565b600073ffffffffffffffffffffffffffffffffffffffff168273ffffffffffffffffffffffffffffffffffffffff1603610f015760006040517f64a0ae92000000000000000000000000000000000000000000000000000000008152600401610ef89190611a8c565b60405180910390fd5b6000610f0f83836000610c75565b9050600073ffffffffffffffffffffffffffffffffffffffff168173ffffffffffffffffffffffffffffffffffffffff1614610f835760006040517f73c6ac6e000000000000000000000000000000000000000000000000000000008152600401610f7a9190611a8c565b60405180910390fd5b505050565b600073ffffffffffffffffffffffffffffffffffffffff168273ffffffffffffffffffffffffffffffffffffffff1603610ff957816040517f5b08ba18000000000000000000000000000000000000000000000000000000008152600401610ff09190611a8c565b60405180910390fd5b80600560008573ffffffffffffffffffffffffffffffffffffffff1673ffffffffffffffffffffffffffffffffffffffff16815260200190815260200160002060008473ffffffffffffffffffffffffffffffffffffffff1673ffffffffffffffffffffffffffffffffffffffff16815260200190815260200160002060006101000a81548160ff0219169083151502179055508173ffffffffffffffffffffffffffffffffffffffff168373ffffffffffffffffffffffffffffffffffffffff167f17307eab39ab6107e8899845ad3d59bd9653f200f220920489ca2b5937696c31836040516110ea919061191b565b60405180910390a3505050565b60008373ffffffffffffffffffffffffffffffffffffffff163b11156112a1578273ffffffffffffffffffffffffffffffffffffffff1663150b7a02868685856040518563ffffffff1660e01b815260040161115694939291906124ce565b6020604051808303816000875af192505050801561119257506040513d601f19601f8201168201806040525081019061118f919061252f565b60015b611216573d80600081146111c2576040519150601f19603f3d011682016040523d82523d6000602084013e6111c7565b606091505b50600081510361120e57836040517f64a0ae920000000000000000000000000000000000000000000000000000000081526004016112059190611a8c565b60405180910390fd5b805181602001fd5b63150b7a0260e01b7bffffffffffffffffffffffffffffffffffffffffffffffffffffffff1916817bffffffffffffffffffffffffffffffffffffffffffffffffffffffff19161461129f57836040517f64a0ae920000000000000000000000000000000000000000000000000000000081526004016112969190611a8c565b60405180910390fd5b505b5050505050565b606060405180602001604052806000815250905090565b6060600060016112ce84611653565b01905060008167ffffffffffffffff8111156112ed576112ec611b70565b5b6040519080825280601f01601f19166020018201604052801561131f5781602001600182028036833780820191505090505b509050600082602001820190505b600115611382578080600190039150507f3031323334353637383961626364656600000000000000000000000000000000600a86061a8153600a85816113765761137561255c565b5b0494506000850361132d575b819350505050919050565b60006002600083815260200190815260200160002060009054906101000a900473ffffffffffffffffffffffffffffffffffffffff169050919050565b80806114035750600073ffffffffffffffffffffffffffffffffffffffff168273ffffffffffffffffffffffffffffffffffffffff1614155b1561153757600061141384610b96565b9050600073ffffffffffffffffffffffffffffffffffffffff168373ffffffffffffffffffffffffffffffffffffffff161415801561147e57508273ffffffffffffffffffffffffffffffffffffffff168173ffffffffffffffffffffffffffffffffffffffff1614155b8015611491575061148f81846109f8565b155b156114d357826040517fa9fbf51f0000000000000000000000000000000000000000000000000000000081526004016114ca9190611a8c565b60405180910390fd5b811561153557838573ffffffffffffffffffffffffffffffffffffffff168273ffffffffffffffffffffffffffffffffffffffff167f8c5be1e5ebec7d5bd14f71427d1e84f3dd0314c0f7b2291e5b200ac8c7c3b92560405160405180910390a45b505b836004600085815260200190815260200160002060006101000a81548173ffffffffffffffffffffffffffffffffffffffff021916908373ffffffffffffffffffffffffffffffffffffffff16021790555050505050565b61159a8383836117a6565b61164e57600073ffffffffffffffffffffffffffffffffffffffff168373ffffffffffffffffffffffffffffffffffffffff160361160f57806040517f7e2732890000000000000000000000000000000000000000000000000000000081526004016116069190611d33565b60405180910390fd5b81816040517f177e802f00000000000000000000000000000000000000000000000000000000815260040161164592919061258b565b60405180910390fd5b505050565b600080600090507a184f03e93ff9f4daa797ed6e38ed64bf6a1f01000000000000000083106116b1577a184f03e93ff9f4daa797ed6e38ed64bf6a1f01000000000000000083816116a7576116a661255c565b5b0492506040810190505b6d04ee2d6d415b85acef810000000083106116ee576d04ee2d6d415b85acef810000000083816116e4576116e361255c565b5b0492506020810190505b662386f26fc10000831061171d57662386f26fc1000083816117135761171261255c565b5b0492506010810190505b6305f5e1008310611746576305f5e100838161173c5761173b61255c565b5b0492506008810190505b612710831061176b5761271083816117615761176061255c565b5b0492506004810190505b6064831061178e57606483816117845761178361255c565b5b0492506002810190505b600a831061179d576001810190505b80915050919050565b60008073ffffffffffffffffffffffffffffffffffffffff168373ffffffffffffffffffffffffffffffffffffffff161415801561185e57508273ffffffffffffffffffffffffffffffffffffffff168473ffffffffffffffffffffffffffffffffffffffff16148061181f575061181e84846109f8565b5b8061185d57508273ffffffffffffffffffffffffffffffffffffffff1661184583610c1e565b73ffffffffffffffffffffffffffffffffffffffff16145b5b90509392505050565b6000604051905090565b600080fd5b600080fd5b60007fffffffff0000000000000000000000000000000000000000000000000000000082169050919050565b6118b08161187b565b81146118bb57600080fd5b50565b6000813590506118cd816118a7565b92915050565b6000602082840312156118e9576118e8611871565b5b60006118f7848285016118be565b91505092915050565b60008115159050919050565b61191581611900565b82525050565b6000602082019050611930600083018461190c565b92915050565b600081519050919050565b600082825260208201905092915050565b60005b83811015611970578082015181840152602081019050611955565b60008484015250505050565b6000601f19601f8301169050919050565b600061199882611936565b6119a28185611941565b93506119b2818560208601611952565b6119bb8161197c565b840191505092915050565b600060208201905081810360008301526119e0818461198d565b905092915050565b6000819050919050565b6119fb816119e8565b8114611a0657600080fd5b50565b600081359050611a18816119f2565b92915050565b600060208284031215611a3457611a33611871565b5b6000611a4284828501611a09565b91505092915050565b600073ffffffffffffffffffffffffffffffffffffffff82169050919050565b6000611a7682611a4b565b9050919050565b611a8681611a6b565b82525050565b6000602082019050611aa16000830184611a7d565b92915050565b611ab081611a6b565b8114611abb57600080fd5b50565b600081359050611acd81611aa7565b92915050565b60008060408385031215611aea57611ae9611871565b5b6000611af885828601611abe565b9250506020611b0985828601611a09565b9150509250929050565b600080600060608486031215611b2c57611b2b611871565b5b6000611b3a86828701611abe565b9350506020611b4b86828701611abe565b9250506040611b5c86828701611a09565b9150509250925092565b600080fd5b600080fd5b7f4e487b7100000000000000000000000000000000000000000000000000000000600052604160045260246000fd5b611ba88261197c565b810181811067ffffffffffffffff82111715611bc757611bc6611b70565b5b80604052505050565b6000611bda611867565b9050611be68282611b9f565b919050565b600067ffffffffffffffff821115611c0657611c05611b70565b5b611c0f8261197c565b9050602081019050919050565b82818337600083830152505050565b6000611c3e611c3984611beb565b611bd0565b905082815260208101848484011115611c5a57611c59611b6b565b5b611c65848285611c1c565b509392505050565b600082601f830112611c8257611c81611b66565b5b8135611c92848260208601611c2b565b91505092915050565b60008060408385031215611cb257611cb1611871565b5b6000611cc085828601611abe565b925050602083013567ffffffffffffffff811115611ce157611ce0611876565b5b611ced85828601611c6d565b9150509250929050565b600060208284031215611d0d57611d0c611871565b5b6000611d1b84828501611abe565b91505092915050565b611d2d816119e8565b82525050565b6000602082019050611d486000830184611d24565b92915050565b611d5781611900565b8114611d6257600080fd5b50565b600081359050611d7481611d4e565b92915050565b60008060408385031215611d9157611d90611871565b5b6000611d9f85828601611abe565b9250506020611db085828601611d65565b9150509250929050565b600067ffffffffffffffff821115611dd557611dd4611b70565b5b602082029050602081019050919050565b600080fd5b6000611dfe611df984611dba565b611bd0565b90508083825260208201905060208402830185811115611e2157611e20611de6565b5b835b81811015611e4a5780611e368882611abe565b845260208401935050602081019050611e23565b5050509392505050565b600082601f830112611e6957611e68611b66565b5b8135611e79848260208601611deb565b91505092915050565b60008060408385031215611e9957611e98611871565b5b600083013567ffffffffffffffff811115611eb757611eb6611876565b5b611ec385828601611e54565b925050602083013567ffffffffffffffff811115611ee457611ee3611876565b5b611ef085828601611c6d565b9150509250929050565b600067ffffffffffffffff821115611f1557611f14611b70565b5b611f1e8261197c565b9050602081019050919050565b6000611f3e611f3984611efa565b611bd0565b905082815260208101848484011115611f5a57611f59611b6b565b5b611f65848285611c1c565b509392505050565b600082601f830112611f8257611f81611b66565b5b8135611f92848260208601611f2b565b91505092915050565b60008060008060808587031215611fb557611fb4611871565b5b6000611fc387828801611abe565b9450506020611fd487828801611abe565b9350506040611fe587828801611a09565b925050606085013567ffffffffffffffff81111561200657612005611876565b5b61201287828801611f6d565b91505092959194509250565b6000806040838503121561203557612034611871565b5b600061204385828601611abe565b925050602061205485828601611abe565b9150509250929050565b7f4e487b7100000000000000000000000000000000000000000000000000000000600052602260045260246000fd5b600060028204905060018216806120a557607f821691505b6020821081036120b8576120b761205e565b5b50919050565b60006060820190506120d36000830186611a7d565b6120e06020830185611d24565b6120ed6040830184611a7d565b949350505050565b7f4e487b7100000000000000000000000000000000000000000000000000000000600052601160045260246000fd5b600061212f826119e8565b91507fffffffffffffffffffffffffffffffffffffffffffffffffffffffffffffffff8203612161576121606120f5565b5b600182019050919050565b60008190508160005260206000209050919050565b60006020601f8301049050919050565b600082821b905092915050565b6000600883026121ce7fffffffffffffffffffffffffffffffffffffffffffffffffffffffffffffffff82612191565b6121d88683612191565b95508019841693508086168417925050509392505050565b6000819050919050565b600061221561221061220b846119e8565b6121f0565b6119e8565b9050919050565b6000819050919050565b61222f836121fa565b61224361223b8261221c565b84845461219e565b825550505050565b600090565b61225861224b565b612263818484612226565b505050565b5b818110156122875761227c600082612250565b600181019050612269565b5050565b601f8211156122cc5761229d8161216c565b6122a684612181565b810160208510156122b5578190505b6122c96122c185612181565b830182612268565b50505b505050565b600082821c905092915050565b60006122ef600019846008026122d1565b1980831691505092915050565b600061230883836122de565b9150826002028217905092915050565b61232182611936565b67ffffffffffffffff81111561233a57612339611b70565b5b612344825461208d565b61234f82828561228b565b600060209050601f8311600181146123825760008415612370578287015190505b61237a85826122fc565b8655506123e2565b601f1984166123908661216c565b60005b828110156123b857848901518255600182019150602085019450602081019050612393565b868310156123d557848901516123d1601f8916826122de565b8355505b6001600288020188555050505b505050505050565b7f4e487b7100000000000000000000000000000000000000000000000000000000600052603260045260246000fd5b600081905092915050565b600061242f82611936565b6124398185612419565b9350612449818560208601611952565b80840191505092915050565b60006124618285612424565b915061246d8284612424565b91508190509392505050565b600081519050919050565b600082825260208201905092915050565b60006124a082612479565b6124aa8185612484565b93506124ba818560208601611952565b6124c38161197c565b840191505092915050565b60006080820190506124e36000830187611a7d565b6124f06020830186611a7d565b6124fd6040830185611d24565b818103606083015261250f8184612495565b905095945050505050565b600081519050612529816118a7565b92915050565b60006020828403121561254557612544611871565b5b60006125538482850161251a565b91505092915050565b7f4e487b7100000000000000000000000000000000000000000000000000000000600052601260045260246000fd5b60006040820190506125a06000830185611a7d565b6125ad6020830184611d24565b939250505056fea264697066735822122087e4054432160c8e1e9a9d552ee012b4ee65a1d7516e8ab9c303462282d0d7ff64736f6c634300081c0033",
  "linkReferences": {},
  "deployedLinkReferences": {}
}